{
  "_format": "hh-sol-artifact-1",
  "contractName": "CourseStaking",
  "sourceName": "contracts/CourseStaking.sol",
  "abi": [
    {
      "inputs": [],
      "stateMutability": "nonpayable",
      "type": "constructor"
    },
    {
      "inputs": [
        {
          "internalType": "address",
          "name": "sender",
          "type": "address"
        },
        {
          "internalType": "uint256",
          "name": "tokenId",
          "type": "uint256"
        },
        {
          "internalType": "address",
          "name": "owner",
          "type": "address"
        }
      ],
      "name": "ERC721IncorrectOwner",
      "type": "error"
    },
    {
      "inputs": [
        {
          "internalType": "address",
          "name": "operator",
          "type": "address"
        },
        {
          "internalType": "uint256",
          "name": "tokenId",
          "type": "uint256"
        }
      ],
      "name": "ERC721InsufficientApproval",
      "type": "error"
    },
    {
      "inputs": [
        {
          "internalType": "address",
          "name": "approver",
          "type": "address"
        }
      ],
      "name": "ERC721InvalidApprover",
      "type": "error"
    },
    {
      "inputs": [
        {
          "internalType": "address",
          "name": "operator",
          "type": "address"
        }
      ],
      "name": "ERC721InvalidOperator",
      "type": "error"
    },
    {
      "inputs": [
        {
          "internalType": "address",
          "name": "owner",
          "type": "address"
        }
      ],
      "name": "ERC721InvalidOwner",
      "type": "error"
    },
    {
      "inputs": [
        {
          "internalType": "address",
          "name": "receiver",
          "type": "address"
        }
      ],
      "name": "ERC721InvalidReceiver",
      "type": "error"
    },
    {
      "inputs": [
        {
          "internalType": "address",
          "name": "sender",
          "type": "address"
        }
      ],
      "name": "ERC721InvalidSender",
      "type": "error"
    },
    {
      "inputs": [
        {
          "internalType": "uint256",
          "name": "tokenId",
          "type": "uint256"
        }
      ],
      "name": "ERC721NonexistentToken",
      "type": "error"
    },
    {
      "inputs": [
        {
          "internalType": "address",
          "name": "owner",
          "type": "address"
        }
      ],
      "name": "OwnableInvalidOwner",
      "type": "error"
    },
    {
      "inputs": [
        {
          "internalType": "address",
          "name": "account",
          "type": "address"
        }
      ],
      "name": "OwnableUnauthorizedAccount",
      "type": "error"
    },
    {
      "anonymous": false,
      "inputs": [
        {
          "indexed": true,
          "internalType": "address",
          "name": "owner",
          "type": "address"
        },
        {
          "indexed": true,
          "internalType": "address",
          "name": "approved",
          "type": "address"
        },
        {
          "indexed": true,
          "internalType": "uint256",
          "name": "tokenId",
          "type": "uint256"
        }
      ],
      "name": "Approval",
      "type": "event"
    },
    {
      "anonymous": false,
      "inputs": [
        {
          "indexed": true,
          "internalType": "address",
          "name": "owner",
          "type": "address"
        },
        {
          "indexed": true,
          "internalType": "address",
          "name": "operator",
          "type": "address"
        },
        {
          "indexed": false,
          "internalType": "bool",
          "name": "approved",
          "type": "bool"
        }
      ],
      "name": "ApprovalForAll",
      "type": "event"
    },
    {
      "anonymous": false,
      "inputs": [
        {
          "indexed": true,
          "internalType": "address",
          "name": "user",
          "type": "address"
        }
      ],
      "name": "CourseCompleted",
      "type": "event"
    },
    {
      "anonymous": false,
      "inputs": [
        {
          "indexed": true,
          "internalType": "address",
          "name": "user",
          "type": "address"
        },
        {
          "indexed": false,
          "internalType": "uint256",
          "name": "tokenId",
          "type": "uint256"
        }
      ],
      "name": "NFTMinted",
      "type": "event"
    },
    {
      "anonymous": false,
      "inputs": [
        {
          "indexed": true,
          "internalType": "address",
          "name": "previousOwner",
          "type": "address"
        },
        {
          "indexed": true,
          "internalType": "address",
          "name": "newOwner",
          "type": "address"
        }
      ],
      "name": "OwnershipTransferred",
      "type": "event"
    },
    {
      "anonymous": false,
      "inputs": [
        {
          "indexed": true,
          "internalType": "address",
          "name": "user",
          "type": "address"
        },
        {
          "indexed": false,
          "internalType": "uint256",
          "name": "amount",
          "type": "uint256"
        }
      ],
      "name": "Staked",
      "type": "event"
    },
    {
      "anonymous": false,
      "inputs": [
        {
          "indexed": true,
          "internalType": "address",
          "name": "from",
          "type": "address"
        },
        {
          "indexed": true,
          "internalType": "address",
          "name": "to",
          "type": "address"
        },
        {
          "indexed": true,
          "internalType": "uint256",
          "name": "tokenId",
          "type": "uint256"
        }
      ],
      "name": "Transfer",
      "type": "event"
    },
    {
      "anonymous": false,
      "inputs": [
        {
          "indexed": true,
          "internalType": "address",
          "name": "user",
          "type": "address"
        },
        {
          "indexed": false,
          "internalType": "uint256",
          "name": "amount",
          "type": "uint256"
        }
      ],
      "name": "Withdrawn",
      "type": "event"
    },
    {
      "inputs": [
        {
          "internalType": "address",
          "name": "to",
          "type": "address"
        },
        {
          "internalType": "uint256",
          "name": "tokenId",
          "type": "uint256"
        }
      ],
      "name": "approve",
      "outputs": [],
      "stateMutability": "nonpayable",
      "type": "function"
    },
    {
      "inputs": [
        {
          "internalType": "address",
          "name": "owner",
          "type": "address"
        }
      ],
      "name": "balanceOf",
      "outputs": [
        {
          "internalType": "uint256",
          "name": "",
          "type": "uint256"
        }
      ],
      "stateMutability": "view",
      "type": "function"
    },
    {
      "inputs": [
        {
          "internalType": "uint256",
          "name": "tokenId",
          "type": "uint256"
        }
      ],
      "name": "getApproved",
      "outputs": [
        {
          "internalType": "address",
          "name": "",
          "type": "address"
        }
      ],
      "stateMutability": "view",
      "type": "function"
    },
    {
      "inputs": [
        {
          "internalType": "address",
          "name": "user",
          "type": "address"
        }
      ],
      "name": "getStakeInfo",
      "outputs": [
        {
          "components": [
            {
              "internalType": "uint256",
              "name": "amount",
              "type": "uint256"
            },
            {
              "internalType": "bool",
              "name": "courseCompleted",
              "type": "bool"
            },
            {
              "internalType": "bool",
              "name": "nftMinted",
              "type": "bool"
            }
          ],
          "internalType": "struct CourseStaking.StakeInfo",
          "name": "",
          "type": "tuple"
        }
      ],
      "stateMutability": "view",
      "type": "function"
    },
    {
      "inputs": [
        {
          "internalType": "address",
          "name": "owner",
          "type": "address"
        },
        {
          "internalType": "address",
          "name": "operator",
          "type": "address"
        }
      ],
      "name": "isApprovedForAll",
      "outputs": [
        {
          "internalType": "bool",
          "name": "",
          "type": "bool"
        }
      ],
      "stateMutability": "view",
      "type": "function"
    },
    {
      "inputs": [
        {
          "internalType": "address",
          "name": "user",
          "type": "address"
        }
      ],
      "name": "markCourseCompleted",
      "outputs": [],
      "stateMutability": "nonpayable",
      "type": "function"
    },
    {
      "inputs": [],
      "name": "mintNFT",
      "outputs": [],
      "stateMutability": "nonpayable",
      "type": "function"
    },
    {
      "inputs": [],
      "name": "name",
      "outputs": [
        {
          "internalType": "string",
          "name": "",
          "type": "string"
        }
      ],
      "stateMutability": "view",
      "type": "function"
    },
    {
      "inputs": [],
      "name": "nftCounter",
      "outputs": [
        {
          "internalType": "uint256",
          "name": "",
          "type": "uint256"
        }
      ],
      "stateMutability": "view",
      "type": "function"
    },
    {
      "inputs": [],
      "name": "owner",
      "outputs": [
        {
          "internalType": "address",
          "name": "",
          "type": "address"
        }
      ],
      "stateMutability": "view",
      "type": "function"
    },
    {
      "inputs": [
        {
          "internalType": "uint256",
          "name": "tokenId",
          "type": "uint256"
        }
      ],
      "name": "ownerOf",
      "outputs": [
        {
          "internalType": "address",
          "name": "",
          "type": "address"
        }
      ],
      "stateMutability": "view",
      "type": "function"
    },
    {
      "inputs": [],
      "name": "renounceOwnership",
      "outputs": [],
      "stateMutability": "nonpayable",
      "type": "function"
    },
    {
      "inputs": [
        {
          "internalType": "address",
          "name": "from",
          "type": "address"
        },
        {
          "internalType": "address",
          "name": "to",
          "type": "address"
        },
        {
          "internalType": "uint256",
          "name": "tokenId",
          "type": "uint256"
        }
      ],
      "name": "safeTransferFrom",
      "outputs": [],
      "stateMutability": "nonpayable",
      "type": "function"
    },
    {
      "inputs": [
        {
          "internalType": "address",
          "name": "from",
          "type": "address"
        },
        {
          "internalType": "address",
          "name": "to",
          "type": "address"
        },
        {
          "internalType": "uint256",
          "name": "tokenId",
          "type": "uint256"
        },
        {
          "internalType": "bytes",
          "name": "data",
          "type": "bytes"
        }
      ],
      "name": "safeTransferFrom",
      "outputs": [],
      "stateMutability": "nonpayable",
      "type": "function"
    },
    {
      "inputs": [
        {
          "internalType": "address",
          "name": "operator",
          "type": "address"
        },
        {
          "internalType": "bool",
          "name": "approved",
          "type": "bool"
        }
      ],
      "name": "setApprovalForAll",
      "outputs": [],
      "stateMutability": "nonpayable",
      "type": "function"
    },
    {
      "inputs": [],
      "name": "stake",
      "outputs": [],
      "stateMutability": "payable",
      "type": "function"
    },
    {
      "inputs": [
        {
          "internalType": "address",
          "name": "",
          "type": "address"
        }
      ],
      "name": "stakes",
      "outputs": [
        {
          "internalType": "uint256",
          "name": "amount",
          "type": "uint256"
        },
        {
          "internalType": "bool",
          "name": "courseCompleted",
          "type": "bool"
        },
        {
          "internalType": "bool",
          "name": "nftMinted",
          "type": "bool"
        }
      ],
      "stateMutability": "view",
      "type": "function"
    },
    {
      "inputs": [
        {
          "internalType": "bytes4",
          "name": "interfaceId",
          "type": "bytes4"
        }
      ],
      "name": "supportsInterface",
      "outputs": [
        {
          "internalType": "bool",
          "name": "",
          "type": "bool"
        }
      ],
      "stateMutability": "view",
      "type": "function"
    },
    {
      "inputs": [],
      "name": "symbol",
      "outputs": [
        {
          "internalType": "string",
          "name": "",
          "type": "string"
        }
      ],
      "stateMutability": "view",
      "type": "function"
    },
    {
      "inputs": [
        {
          "internalType": "uint256",
          "name": "tokenId",
          "type": "uint256"
        }
      ],
      "name": "tokenURI",
      "outputs": [
        {
          "internalType": "string",
          "name": "",
          "type": "string"
        }
      ],
      "stateMutability": "view",
      "type": "function"
    },
    {
      "inputs": [],
      "name": "totalStaked",
      "outputs": [
        {
          "internalType": "uint256",
          "name": "",
          "type": "uint256"
        }
      ],
      "stateMutability": "view",
      "type": "function"
    },
    {
      "inputs": [
        {
          "internalType": "address",
          "name": "from",
          "type": "address"
        },
        {
          "internalType": "address",
          "name": "to",
          "type": "address"
        },
        {
          "internalType": "uint256",
          "name": "tokenId",
          "type": "uint256"
        }
      ],
      "name": "transferFrom",
      "outputs": [],
      "stateMutability": "nonpayable",
      "type": "function"
    },
    {
      "inputs": [
        {
          "internalType": "address",
          "name": "newOwner",
          "type": "address"
        }
      ],
      "name": "transferOwnership",
      "outputs": [],
      "stateMutability": "nonpayable",
      "type": "function"
    },
    {
      "inputs": [],
      "name": "withdraw",
      "outputs": [],
      "stateMutability": "nonpayable",
      "type": "function"
    }
  ],
  "bytecode": "0x60806040523480156200001157600080fd5b50336040518060400160405280601381526020017f436f75727365436f6d706c6574696f6e4e4654000000000000000000000000008152506040518060400160405280600581526020017f43434e4654000000000000000000000000000000000000000000000000000000815250816000908162000090919062000472565b508060019081620000a2919062000472565b505050600073ffffffffffffffffffffffffffffffffffffffff168173ffffffffffffffffffffffffffffffffffffffff16036200011a5760006040517f1e4fbdf70000000000000000000000000000000000000000000000000000000081526004016200011191906200059e565b60405180910390fd5b6200012b816200013260201b60201c565b50620005bb565b6000600660009054906101000a900473ffffffffffffffffffffffffffffffffffffffff16905081600660006101000a81548173ffffffffffffffffffffffffffffffffffffffff021916908373ffffffffffffffffffffffffffffffffffffffff1602179055508173ffffffffffffffffffffffffffffffffffffffff168173ffffffffffffffffffffffffffffffffffffffff167f8be0079c531659141344cd1fd0a4f28419497f9722a3daafe3b4186f6b6457e060405160405180910390a35050565b600081519050919050565b7f4e487b7100000000000000000000000000000000000000000000000000000000600052604160045260246000fd5b7f4e487b7100000000000000000000000000000000000000000000000000000000600052602260045260246000fd5b600060028204905060018216806200027a57607f821691505b60208210810362000290576200028f62000232565b5b50919050565b60008190508160005260206000209050919050565b60006020601f8301049050919050565b600082821b905092915050565b600060088302620002fa7fffffffffffffffffffffffffffffffffffffffffffffffffffffffffffffffff82620002bb565b620003068683620002bb565b95508019841693508086168417925050509392505050565b6000819050919050565b6000819050919050565b6000620003536200034d62000347846200031e565b62000328565b6200031e565b9050919050565b6000819050919050565b6200036f8362000332565b620003876200037e826200035a565b848454620002c8565b825550505050565b600090565b6200039e6200038f565b620003ab81848462000364565b505050565b5b81811015620003d357620003c760008262000394565b600181019050620003b1565b5050565b601f8211156200042257620003ec8162000296565b620003f784620002ab565b8101602085101562000407578190505b6200041f6200041685620002ab565b830182620003b0565b50505b505050565b600082821c905092915050565b6000620004476000198460080262000427565b1980831691505092915050565b600062000462838362000434565b9150826002028217905092915050565b6200047d82620001f8565b67ffffffffffffffff81111562000499576200049862000203565b5b620004a5825462000261565b620004b2828285620003d7565b600060209050601f831160018114620004ea5760008415620004d5578287015190505b620004e1858262000454565b86555062000551565b601f198416620004fa8662000296565b60005b828110156200052457848901518255600182019150602085019450602081019050620004fd565b8683101562000544578489015162000540601f89168262000434565b8355505b6001600288020188555050505b505050505050565b600073ffffffffffffffffffffffffffffffffffffffff82169050919050565b6000620005868262000559565b9050919050565b620005988162000579565b82525050565b6000602082019050620005b560008301846200058d565b92915050565b612ca980620005cb6000396000f3fe60806040526004361061014b5760003560e01c8063715018a6116100b6578063c34531531161006f578063c34531531461044b578063c87b56dd14610488578063cb8f1217146104c5578063e574609e146104ee578063e985e9c514610519578063f2fde38b146105565761014b565b8063715018a614610361578063817b1cd2146103785780638da5cb5b146103a357806395d89b41146103ce578063a22cb465146103f9578063b88d4fde146104225761014b565b806323b872dd1161010857806323b872dd146102745780633a4b66f11461029d5780633ccfd60b146102a757806342842e0e146102be5780636352211e146102e757806370a08231146103245761014b565b806301ffc9a71461015057806306fdde031461018d578063081812fc146101b8578063095ea7b3146101f557806314f710fe1461021e57806316934fc414610235575b600080fd5b34801561015c57600080fd5b5061017760048036038101906101729190612146565b61057f565b604051610184919061218e565b60405180910390f35b34801561019957600080fd5b506101a2610661565b6040516101af9190612239565b60405180910390f35b3480156101c457600080fd5b506101df60048036038101906101da9190612291565b6106f3565b6040516101ec91906122ff565b60405180910390f35b34801561020157600080fd5b5061021c60048036038101906102179190612346565b61070f565b005b34801561022a57600080fd5b50610233610725565b005b34801561024157600080fd5b5061025c60048036038101906102579190612386565b6108ab565b60405161026b939291906123c2565b60405180910390f35b34801561028057600080fd5b5061029b600480360381019061029691906123f9565b6108ef565b005b6102a56109f1565b005b3480156102b357600080fd5b506102bc610b36565b005b3480156102ca57600080fd5b506102e560048036038101906102e091906123f9565b610cd6565b005b3480156102f357600080fd5b5061030e60048036038101906103099190612291565b610cf6565b60405161031b91906122ff565b60405180910390f35b34801561033057600080fd5b5061034b60048036038101906103469190612386565b610d08565b604051610358919061244c565b60405180910390f35b34801561036d57600080fd5b50610376610dc2565b005b34801561038457600080fd5b5061038d610dd6565b60405161039a919061244c565b60405180910390f35b3480156103af57600080fd5b506103b8610ddc565b6040516103c591906122ff565b60405180910390f35b3480156103da57600080fd5b506103e3610e06565b6040516103f09190612239565b60405180910390f35b34801561040557600080fd5b50610420600480360381019061041b9190612493565b610e98565b005b34801561042e57600080fd5b5061044960048036038101906104449190612608565b610eae565b005b34801561045757600080fd5b50610472600480360381019061046d9190612386565b610ed3565b60405161047f91906126eb565b60405180910390f35b34801561049457600080fd5b506104af60048036038101906104aa9190612291565b610f6c565b6040516104bc9190612239565b60405180910390f35b3480156104d157600080fd5b506104ec60048036038101906104e79190612386565b610fd5565b005b3480156104fa57600080fd5b506105036110cb565b604051610510919061244c565b60405180910390f35b34801561052557600080fd5b50610540600480360381019061053b9190612706565b6110d1565b60405161054d919061218e565b60405180910390f35b34801561056257600080fd5b5061057d60048036038101906105789190612386565b611165565b005b60007f80ac58cd000000000000000000000000000000000000000000000000000000007bffffffffffffffffffffffffffffffffffffffffffffffffffffffff1916827bffffffffffffffffffffffffffffffffffffffffffffffffffffffff1916148061064a57507f5b5e139f000000000000000000000000000000000000000000000000000000007bffffffffffffffffffffffffffffffffffffffffffffffffffffffff1916827bffffffffffffffffffffffffffffffffffffffffffffffffffffffff1916145b8061065a5750610659826111eb565b5b9050919050565b60606000805461067090612775565b80601f016020809104026020016040519081016040528092919081815260200182805461069c90612775565b80156106e95780601f106106be576101008083540402835291602001916106e9565b820191906000526020600020905b8154815290600101906020018083116106cc57829003601f168201915b5050505050905090565b60006106fe82611255565b50610708826112dd565b9050919050565b610721828261071c61131a565b611322565b5050565b6000600760003373ffffffffffffffffffffffffffffffffffffffff1673ffffffffffffffffffffffffffffffffffffffff16815260200190815260200160002090508060010160009054906101000a900460ff166107b9576040517f08c379a00000000000000000000000000000000000000000000000000000000081526004016107b0906127f2565b60405180910390fd5b8060010160019054906101000a900460ff161561080b576040517f08c379a00000000000000000000000000000000000000000000000000000000081526004016108029061285e565b60405180910390fd5b60018160010160016101000a81548160ff02191690831515021790555061083433600954611334565b60096000815480929190610847906128ad565b91905055503373ffffffffffffffffffffffffffffffffffffffff167f4cc0a9c4a99ddc700de1af2c9f916a7cbfdb71f14801ccff94061ad1ef8a8040600160095461089391906128f5565b6040516108a0919061244c565b60405180910390a250565b60076020528060005260406000206000915090508060000154908060010160009054906101000a900460ff16908060010160019054906101000a900460ff16905083565b600073ffffffffffffffffffffffffffffffffffffffff168273ffffffffffffffffffffffffffffffffffffffff16036109615760006040517f64a0ae9200000000000000000000000000000000000000000000000000000000815260040161095891906122ff565b60405180910390fd5b6000610975838361097061131a565b611352565b90508373ffffffffffffffffffffffffffffffffffffffff168173ffffffffffffffffffffffffffffffffffffffff16146109eb578382826040517f64283d7b0000000000000000000000000000000000000000000000000000000081526004016109e293929190612929565b60405180910390fd5b50505050565b60003411610a34576040517f08c379a0000000000000000000000000000000000000000000000000000000008152600401610a2b906129ac565b60405180910390fd5b6000600760003373ffffffffffffffffffffffffffffffffffffffff1673ffffffffffffffffffffffffffffffffffffffff168152602001908152602001600020905034816000016000828254610a8b91906129cc565b9250508190555060008160010160006101000a81548160ff02191690831515021790555060008160010160016101000a81548160ff0219169083151502179055503460086000828254610ade91906129cc565b925050819055503373ffffffffffffffffffffffffffffffffffffffff167f9e71bc8eea02a63969f509818f2dafb9254532904319f9dbda79b67bd34a5f3d34604051610b2b919061244c565b60405180910390a250565b6000600760003373ffffffffffffffffffffffffffffffffffffffff1673ffffffffffffffffffffffffffffffffffffffff16815260200190815260200160002090506000816000015411610bc0576040517f08c379a0000000000000000000000000000000000000000000000000000000008152600401610bb790612a4c565b60405180910390fd5b8060010160009054906101000a900460ff16610c11576040517f08c379a0000000000000000000000000000000000000000000000000000000008152600401610c08906127f2565b60405180910390fd5b600081600001549050600082600001819055508060086000828254610c3691906128f5565b925050819055503373ffffffffffffffffffffffffffffffffffffffff166108fc829081150290604051600060405180830381858888f19350505050158015610c83573d6000803e3d6000fd5b503373ffffffffffffffffffffffffffffffffffffffff167f7084f5476618d8e60b11ef0d7d3f06914655adb8793e28ff7f018d4c76d505d582604051610cca919061244c565b60405180910390a25050565b610cf183838360405180602001604052806000815250610eae565b505050565b6000610d0182611255565b9050919050565b60008073ffffffffffffffffffffffffffffffffffffffff168273ffffffffffffffffffffffffffffffffffffffff1603610d7b5760006040517f89c62b64000000000000000000000000000000000000000000000000000000008152600401610d7291906122ff565b60405180910390fd5b600360008373ffffffffffffffffffffffffffffffffffffffff1673ffffffffffffffffffffffffffffffffffffffff168152602001908152602001600020549050919050565b610dca61156c565b610dd460006115f3565b565b60085481565b6000600660009054906101000a900473ffffffffffffffffffffffffffffffffffffffff16905090565b606060018054610e1590612775565b80601f0160208091040260200160405190810160405280929190818152602001828054610e4190612775565b8015610e8e5780601f10610e6357610100808354040283529160200191610e8e565b820191906000526020600020905b815481529060010190602001808311610e7157829003601f168201915b5050505050905090565b610eaa610ea361131a565b83836116b9565b5050565b610eb98484846108ef565b610ecd610ec461131a565b85858585611828565b50505050565b610edb6120b5565b600760008373ffffffffffffffffffffffffffffffffffffffff1673ffffffffffffffffffffffffffffffffffffffff168152602001908152602001600020604051806060016040529081600082015481526020016001820160009054906101000a900460ff161515151581526020016001820160019054906101000a900460ff1615151515815250509050919050565b6060610f7782611255565b506000610f826119d9565b90506000815111610fa25760405180602001604052806000815250610fcd565b80610fac846119f0565b604051602001610fbd929190612aa8565b6040516020818303038152906040525b915050919050565b610fdd61156c565b6000600760008373ffffffffffffffffffffffffffffffffffffffff1673ffffffffffffffffffffffffffffffffffffffff16815260200190815260200160002090506000816000015411611067576040517f08c379a000000000000000000000000000000000000000000000000000000000815260040161105e90612b18565b60405180910390fd5b60018160010160006101000a81548160ff0219169083151502179055508173ffffffffffffffffffffffffffffffffffffffff167fe43ca6e7f4a14343afa9e106f02218cd6cbcbfa00762bcec9000291df6a7387c60405160405180910390a25050565b60095481565b6000600560008473ffffffffffffffffffffffffffffffffffffffff1673ffffffffffffffffffffffffffffffffffffffff16815260200190815260200160002060008373ffffffffffffffffffffffffffffffffffffffff1673ffffffffffffffffffffffffffffffffffffffff16815260200190815260200160002060009054906101000a900460ff16905092915050565b61116d61156c565b600073ffffffffffffffffffffffffffffffffffffffff168173ffffffffffffffffffffffffffffffffffffffff16036111df5760006040517f1e4fbdf70000000000000000000000000000000000000000000000000000000081526004016111d691906122ff565b60405180910390fd5b6111e8816115f3565b50565b60007f01ffc9a7000000000000000000000000000000000000000000000000000000007bffffffffffffffffffffffffffffffffffffffffffffffffffffffff1916827bffffffffffffffffffffffffffffffffffffffffffffffffffffffff1916149050919050565b60008061126183611abe565b9050600073ffffffffffffffffffffffffffffffffffffffff168173ffffffffffffffffffffffffffffffffffffffff16036112d457826040517f7e2732890000000000000000000000000000000000000000000000000000000081526004016112cb919061244c565b60405180910390fd5b80915050919050565b60006004600083815260200190815260200160002060009054906101000a900473ffffffffffffffffffffffffffffffffffffffff169050919050565b600033905090565b61132f8383836001611afb565b505050565b61134e828260405180602001604052806000815250611cc0565b5050565b60008061135e84611abe565b9050600073ffffffffffffffffffffffffffffffffffffffff168373ffffffffffffffffffffffffffffffffffffffff16146113a05761139f818486611ce4565b5b600073ffffffffffffffffffffffffffffffffffffffff168173ffffffffffffffffffffffffffffffffffffffff1614611431576113e2600085600080611afb565b6001600360008373ffffffffffffffffffffffffffffffffffffffff1673ffffffffffffffffffffffffffffffffffffffff168152602001908152602001600020600082825403925050819055505b600073ffffffffffffffffffffffffffffffffffffffff168573ffffffffffffffffffffffffffffffffffffffff16146114b4576001600360008773ffffffffffffffffffffffffffffffffffffffff1673ffffffffffffffffffffffffffffffffffffffff168152602001908152602001600020600082825401925050819055505b846002600086815260200190815260200160002060006101000a81548173ffffffffffffffffffffffffffffffffffffffff021916908373ffffffffffffffffffffffffffffffffffffffff160217905550838573ffffffffffffffffffffffffffffffffffffffff168273ffffffffffffffffffffffffffffffffffffffff167fddf252ad1be2c89b69c2b068fc378daa952ba7f163c4a11628f55a4df523b3ef60405160405180910390a4809150509392505050565b61157461131a565b73ffffffffffffffffffffffffffffffffffffffff16611592610ddc565b73ffffffffffffffffffffffffffffffffffffffff16146115f1576115b561131a565b6040517f118cdaa70000000000000000000000000000000000000000000000000000000081526004016115e891906122ff565b60405180910390fd5b565b6000600660009054906101000a900473ffffffffffffffffffffffffffffffffffffffff16905081600660006101000a81548173ffffffffffffffffffffffffffffffffffffffff021916908373ffffffffffffffffffffffffffffffffffffffff1602179055508173ffffffffffffffffffffffffffffffffffffffff168173ffffffffffffffffffffffffffffffffffffffff167f8be0079c531659141344cd1fd0a4f28419497f9722a3daafe3b4186f6b6457e060405160405180910390a35050565b600073ffffffffffffffffffffffffffffffffffffffff168273ffffffffffffffffffffffffffffffffffffffff160361172a57816040517f5b08ba1800000000000000000000000000000000000000000000000000000000815260040161172191906122ff565b60405180910390fd5b80600560008573ffffffffffffffffffffffffffffffffffffffff1673ffffffffffffffffffffffffffffffffffffffff16815260200190815260200160002060008473ffffffffffffffffffffffffffffffffffffffff1673ffffffffffffffffffffffffffffffffffffffff16815260200190815260200160002060006101000a81548160ff0219169083151502179055508173ffffffffffffffffffffffffffffffffffffffff168373ffffffffffffffffffffffffffffffffffffffff167f17307eab39ab6107e8899845ad3d59bd9653f200f220920489ca2b5937696c318360405161181b919061218e565b60405180910390a3505050565b60008373ffffffffffffffffffffffffffffffffffffffff163b11156119d2578273ffffffffffffffffffffffffffffffffffffffff1663150b7a02868685856040518563ffffffff1660e01b81526004016118879493929190612b8d565b6020604051808303816000875af19250505080156118c357506040513d601f19601f820116820180604052508101906118c09190612bee565b60015b611947573d80600081146118f3576040519150601f19603f3d011682016040523d82523d6000602084013e6118f8565b606091505b50600081510361193f57836040517f64a0ae9200000000000000000000000000000000000000000000000000000000815260040161193691906122ff565b60405180910390fd5b805181602001fd5b63150b7a0260e01b7bffffffffffffffffffffffffffffffffffffffffffffffffffffffff1916817bffffffffffffffffffffffffffffffffffffffffffffffffffffffff1916146119d057836040517f64a0ae920000000000000000000000000000000000000000000000000000000081526004016119c791906122ff565b60405180910390fd5b505b5050505050565b606060405180602001604052806000815250905090565b6060600060016119ff84611da8565b01905060008167ffffffffffffffff811115611a1e57611a1d6124dd565b5b6040519080825280601f01601f191660200182016040528015611a505781602001600182028036833780820191505090505b509050600082602001820190505b600115611ab3578080600190039150507f3031323334353637383961626364656600000000000000000000000000000000600a86061a8153600a8581611aa757611aa6612c1b565b5b04945060008503611a5e575b819350505050919050565b60006002600083815260200190815260200160002060009054906101000a900473ffffffffffffffffffffffffffffffffffffffff169050919050565b8080611b345750600073ffffffffffffffffffffffffffffffffffffffff168273ffffffffffffffffffffffffffffffffffffffff1614155b15611c68576000611b4484611255565b9050600073ffffffffffffffffffffffffffffffffffffffff168373ffffffffffffffffffffffffffffffffffffffff1614158015611baf57508273ffffffffffffffffffffffffffffffffffffffff168173ffffffffffffffffffffffffffffffffffffffff1614155b8015611bc25750611bc081846110d1565b155b15611c0457826040517fa9fbf51f000000000000000000000000000000000000000000000000000000008152600401611bfb91906122ff565b60405180910390fd5b8115611c6657838573ffffffffffffffffffffffffffffffffffffffff168273ffffffffffffffffffffffffffffffffffffffff167f8c5be1e5ebec7d5bd14f71427d1e84f3dd0314c0f7b2291e5b200ac8c7c3b92560405160405180910390a45b505b836004600085815260200190815260200160002060006101000a81548173ffffffffffffffffffffffffffffffffffffffff021916908373ffffffffffffffffffffffffffffffffffffffff16021790555050505050565b611cca8383611efb565b611cdf611cd561131a565b6000858585611828565b505050565b611cef838383611ff4565b611da357600073ffffffffffffffffffffffffffffffffffffffff168373ffffffffffffffffffffffffffffffffffffffff1603611d6457806040517f7e273289000000000000000000000000000000000000000000000000000000008152600401611d5b919061244c565b60405180910390fd5b81816040517f177e802f000000000000000000000000000000000000000000000000000000008152600401611d9a929190612c4a565b60405180910390fd5b505050565b600080600090507a184f03e93ff9f4daa797ed6e38ed64bf6a1f0100000000000000008310611e06577a184f03e93ff9f4daa797ed6e38ed64bf6a1f0100000000000000008381611dfc57611dfb612c1b565b5b0492506040810190505b6d04ee2d6d415b85acef81000000008310611e43576d04ee2d6d415b85acef81000000008381611e3957611e38612c1b565b5b0492506020810190505b662386f26fc100008310611e7257662386f26fc100008381611e6857611e67612c1b565b5b0492506010810190505b6305f5e1008310611e9b576305f5e1008381611e9157611e90612c1b565b5b0492506008810190505b6127108310611ec0576127108381611eb657611eb5612c1b565b5b0492506004810190505b60648310611ee35760648381611ed957611ed8612c1b565b5b0492506002810190505b600a8310611ef2576001810190505b80915050919050565b600073ffffffffffffffffffffffffffffffffffffffff168273ffffffffffffffffffffffffffffffffffffffff1603611f6d5760006040517f64a0ae92000000000000000000000000000000000000000000000000000000008152600401611f6491906122ff565b60405180910390fd5b6000611f7b83836000611352565b9050600073ffffffffffffffffffffffffffffffffffffffff168173ffffffffffffffffffffffffffffffffffffffff1614611fef5760006040517f73c6ac6e000000000000000000000000000000000000000000000000000000008152600401611fe691906122ff565b60405180910390fd5b505050565b60008073ffffffffffffffffffffffffffffffffffffffff168373ffffffffffffffffffffffffffffffffffffffff16141580156120ac57508273ffffffffffffffffffffffffffffffffffffffff168473ffffffffffffffffffffffffffffffffffffffff16148061206d575061206c84846110d1565b5b806120ab57508273ffffffffffffffffffffffffffffffffffffffff16612093836112dd565b73ffffffffffffffffffffffffffffffffffffffff16145b5b90509392505050565b6040518060600160405280600081526020016000151581526020016000151581525090565b6000604051905090565b600080fd5b600080fd5b60007fffffffff0000000000000000000000000000000000000000000000000000000082169050919050565b612123816120ee565b811461212e57600080fd5b50565b6000813590506121408161211a565b92915050565b60006020828403121561215c5761215b6120e4565b5b600061216a84828501612131565b91505092915050565b60008115159050919050565b61218881612173565b82525050565b60006020820190506121a3600083018461217f565b92915050565b600081519050919050565b600082825260208201905092915050565b60005b838110156121e35780820151818401526020810190506121c8565b60008484015250505050565b6000601f19601f8301169050919050565b600061220b826121a9565b61221581856121b4565b93506122258185602086016121c5565b61222e816121ef565b840191505092915050565b600060208201905081810360008301526122538184612200565b905092915050565b6000819050919050565b61226e8161225b565b811461227957600080fd5b50565b60008135905061228b81612265565b92915050565b6000602082840312156122a7576122a66120e4565b5b60006122b58482850161227c565b91505092915050565b600073ffffffffffffffffffffffffffffffffffffffff82169050919050565b60006122e9826122be565b9050919050565b6122f9816122de565b82525050565b600060208201905061231460008301846122f0565b92915050565b612323816122de565b811461232e57600080fd5b50565b6000813590506123408161231a565b92915050565b6000806040838503121561235d5761235c6120e4565b5b600061236b85828601612331565b925050602061237c8582860161227c565b9150509250929050565b60006020828403121561239c5761239b6120e4565b5b60006123aa84828501612331565b91505092915050565b6123bc8161225b565b82525050565b60006060820190506123d760008301866123b3565b6123e4602083018561217f565b6123f1604083018461217f565b949350505050565b600080600060608486031215612412576124116120e4565b5b600061242086828701612331565b935050602061243186828701612331565b92505060406124428682870161227c565b9150509250925092565b600060208201905061246160008301846123b3565b92915050565b61247081612173565b811461247b57600080fd5b50565b60008135905061248d81612467565b92915050565b600080604083850312156124aa576124a96120e4565b5b60006124b885828601612331565b92505060206124c98582860161247e565b9150509250929050565b600080fd5b600080fd5b7f4e487b7100000000000000000000000000000000000000000000000000000000600052604160045260246000fd5b612515826121ef565b810181811067ffffffffffffffff82111715612534576125336124dd565b5b80604052505050565b60006125476120da565b9050612553828261250c565b919050565b600067ffffffffffffffff821115612573576125726124dd565b5b61257c826121ef565b9050602081019050919050565b82818337600083830152505050565b60006125ab6125a684612558565b61253d565b9050828152602081018484840111156125c7576125c66124d8565b5b6125d2848285612589565b509392505050565b600082601f8301126125ef576125ee6124d3565b5b81356125ff848260208601612598565b91505092915050565b60008060008060808587031215612622576126216120e4565b5b600061263087828801612331565b945050602061264187828801612331565b93505060406126528782880161227c565b925050606085013567ffffffffffffffff811115612673576126726120e9565b5b61267f878288016125da565b91505092959194509250565b6126948161225b565b82525050565b6126a381612173565b82525050565b6060820160008201516126bf600085018261268b565b5060208201516126d2602085018261269a565b5060408201516126e5604085018261269a565b50505050565b600060608201905061270060008301846126a9565b92915050565b6000806040838503121561271d5761271c6120e4565b5b600061272b85828601612331565b925050602061273c85828601612331565b9150509250929050565b7f4e487b7100000000000000000000000000000000000000000000000000000000600052602260045260246000fd5b6000600282049050600182168061278d57607f821691505b6020821081036127a05761279f612746565b5b50919050565b7f436f75727365206e6f7420636f6d706c65746564207965740000000000000000600082015250565b60006127dc6018836121b4565b91506127e7826127a6565b602082019050919050565b6000602082019050818103600083015261280b816127cf565b9050919050565b7f4e465420616c7265616479206d696e7465640000000000000000000000000000600082015250565b60006128486012836121b4565b915061285382612812565b602082019050919050565b600060208201905081810360008301526128778161283b565b9050919050565b7f4e487b7100000000000000000000000000000000000000000000000000000000600052601160045260246000fd5b60006128b88261225b565b91507fffffffffffffffffffffffffffffffffffffffffffffffffffffffffffffffff82036128ea576128e961287e565b5b600182019050919050565b60006129008261225b565b915061290b8361225b565b92508282039050818111156129235761292261287e565b5b92915050565b600060608201905061293e60008301866122f0565b61294b60208301856123b3565b61295860408301846122f0565b949350505050565b7f4d757374207374616b65206120706f73697469766520616d6f756e7400000000600082015250565b6000612996601c836121b4565b91506129a182612960565b602082019050919050565b600060208201905081810360008301526129c581612989565b9050919050565b60006129d78261225b565b91506129e28361225b565b92508282019050808211156129fa576129f961287e565b5b92915050565b7f4e6f20746f6b656e73207374616b656400000000000000000000000000000000600082015250565b6000612a366010836121b4565b9150612a4182612a00565b602082019050919050565b60006020820190508181036000830152612a6581612a29565b9050919050565b600081905092915050565b6000612a82826121a9565b612a8c8185612a6c565b9350612a9c8185602086016121c5565b80840191505092915050565b6000612ab48285612a77565b9150612ac08284612a77565b91508190509392505050565b7f5573657220686173206e6f207374616b65000000000000000000000000000000600082015250565b6000612b026011836121b4565b9150612b0d82612acc565b602082019050919050565b60006020820190508181036000830152612b3181612af5565b9050919050565b600081519050919050565b600082825260208201905092915050565b6000612b5f82612b38565b612b698185612b43565b9350612b798185602086016121c5565b612b82816121ef565b840191505092915050565b6000608082019050612ba260008301876122f0565b612baf60208301866122f0565b612bbc60408301856123b3565b8181036060830152612bce8184612b54565b905095945050505050565b600081519050612be88161211a565b92915050565b600060208284031215612c0457612c036120e4565b5b6000612c1284828501612bd9565b91505092915050565b7f4e487b7100000000000000000000000000000000000000000000000000000000600052601260045260246000fd5b6000604082019050612c5f60008301856122f0565b612c6c60208301846123b3565b939250505056fea264697066735822122013b206d05a7ce692faf61490b5d51ac4379d6c3874dfcfad16ee81bcf11951c464736f6c63430008140033",
  "linkReferences": {},
  "deployedLinkReferences": {}
}